{
  "_format": "hh-sol-artifact-1",
  "contractName": "DAOVoting",
  "sourceName": "contracts/DAOVoting.sol",
  "abi": [
    {
      "inputs": [
        {
          "internalType": "address",
          "name": "_verifier",
          "type": "address"
        },
        {
          "internalType": "uint256",
          "name": "_merkleRoot",
          "type": "uint256"
        }
      ],
      "stateMutability": "nonpayable",
      "type": "constructor"
    },
    {
      "anonymous": false,
      "inputs": [
        {
          "indexed": true,
          "internalType": "uint256",
          "name": "proposalId",
          "type": "uint256"
        },
        {
          "indexed": false,
          "internalType": "string",
          "name": "description",
          "type": "string"
        }
      ],
      "name": "ProposalCreated",
      "type": "event"
    },
    {
      "anonymous": false,
      "inputs": [
        {
          "indexed": true,
          "internalType": "uint256",
          "name": "proposalId",
          "type": "uint256"
        },
        {
          "indexed": false,
          "internalType": "uint256",
          "name": "nullifierHash",
          "type": "uint256"
        }
      ],
      "name": "VoteCast",
      "type": "event"
    },
    {
      "inputs": [
        {
          "internalType": "uint256",
          "name": "proposalId",
          "type": "uint256"
        },
        {
          "internalType": "string",
          "name": "description",
          "type": "string"
        }
      ],
      "name": "createProposal",
      "outputs": [],
      "stateMutability": "nonpayable",
      "type": "function"
    },
    {
      "inputs": [
        {
          "internalType": "uint256",
          "name": "proposalId",
          "type": "uint256"
        }
      ],
      "name": "getVotes",
      "outputs": [
        {
          "internalType": "uint256",
          "name": "",
          "type": "uint256"
        }
      ],
      "stateMutability": "view",
      "type": "function"
    },
    {
      "inputs": [],
      "name": "merkleRoot",
      "outputs": [
        {
          "internalType": "uint256",
          "name": "",
          "type": "uint256"
        }
      ],
      "stateMutability": "view",
      "type": "function"
    },
    {
      "inputs": [
        {
          "internalType": "uint256",
          "name": "",
          "type": "uint256"
        }
      ],
      "name": "nullifierUsed",
      "outputs": [
        {
          "internalType": "bool",
          "name": "",
          "type": "bool"
        }
      ],
      "stateMutability": "view",
      "type": "function"
    },
    {
      "inputs": [
        {
          "internalType": "uint256",
          "name": "",
          "type": "uint256"
        }
      ],
      "name": "proposals",
      "outputs": [
        {
          "internalType": "string",
          "name": "description",
          "type": "string"
        },
        {
          "internalType": "uint256",
          "name": "voteCount",
          "type": "uint256"
        },
        {
          "internalType": "bool",
          "name": "exists",
          "type": "bool"
        }
      ],
      "stateMutability": "view",
      "type": "function"
    },
    {
      "inputs": [],
      "name": "verifier",
      "outputs": [
        {
          "internalType": "contract Groth16Verifier",
          "name": "",
          "type": "address"
        }
      ],
      "stateMutability": "view",
      "type": "function"
    },
    {
      "inputs": [
        {
          "internalType": "uint256",
          "name": "proposalId",
          "type": "uint256"
        },
        {
          "internalType": "uint256[2]",
          "name": "a",
          "type": "uint256[2]"
        },
        {
          "internalType": "uint256[2][2]",
          "name": "b",
          "type": "uint256[2][2]"
        },
        {
          "internalType": "uint256[2]",
          "name": "c",
          "type": "uint256[2]"
        },
        {
          "internalType": "uint256[1]",
          "name": "publicSignals",
          "type": "uint256[1]"
        },
        {
          "internalType": "uint256",
          "name": "nullifierHash",
          "type": "uint256"
        }
      ],
      "name": "vote",
      "outputs": [],
      "stateMutability": "nonpayable",
      "type": "function"
    }
  ],
  "bytecode": "0x60806040523480156200001157600080fd5b50604051620014573803806200145783398181016040528101906200003791906200012b565b816000806101000a81548173ffffffffffffffffffffffffffffffffffffffff021916908373ffffffffffffffffffffffffffffffffffffffff16021790555080600181905550505062000172565b600080fd5b600073ffffffffffffffffffffffffffffffffffffffff82169050919050565b6000620000b8826200008b565b9050919050565b620000ca81620000ab565b8114620000d657600080fd5b50565b600081519050620000ea81620000bf565b92915050565b6000819050919050565b6200010581620000f0565b81146200011157600080fd5b50565b6000815190506200012581620000fa565b92915050565b6000806040838503121562000145576200014462000086565b5b60006200015585828601620000d9565b9250506020620001688582860162000114565b9150509250929050565b6112d580620001826000396000f3fe608060405234801561001057600080fd5b506004361061007d5760003560e01c80632eb4a7ab1161005b5780632eb4a7ab146100ee5780634f78fe4c1461010c57806379f95ee914610128578063ff981099146101585761007d565b8063013cf08b1461008257806302d52fa4146100b45780632b7ac3f3146100d0575b600080fd5b61009c60048036038101906100979190610756565b610188565b6040516100ab9392919061083d565b60405180910390f35b6100ce60048036038101906100c991906108e0565b610247565b005b6100d86103a3565b6040516100e591906109bf565b60405180910390f35b6100f66103c7565b60405161010391906109da565b60405180910390f35b61012660048036038101906101219190610a5b565b6103cd565b005b610142600480360381019061013d9190610756565b610673565b60405161014f9190610aeb565b60405180910390f35b610172600480360381019061016d9190610756565b610693565b60405161017f91906109da565b60405180910390f35b60026020528060005260406000206000915090508060000180546101ab90610b35565b80601f01602080910402602001604051908101604052809291908181526020018280546101d790610b35565b80156102245780601f106101f957610100808354040283529160200191610224565b820191906000526020600020905b81548152906001019060200180831161020757829003601f168201915b5050505050908060010154908060020160009054906101000a900460ff16905083565b6002600084815260200190815260200160002060020160009054906101000a900460ff16156102ab576040517f08c379a00000000000000000000000000000000000000000000000000000000081526004016102a290610bb2565b60405180910390fd5b604051806060016040528083838080601f016020809104026020016040519081016040528093929190818152602001838380828437600081840152601f19601f82011690508083019250505050505050815260200160008152602001600115158152506002600085815260200190815260200160002060008201518160000190816103369190610da3565b506020820151816001015560408201518160020160006101000a81548160ff021916908315150217905550905050827f9c770c289ab5bf7e57cb1d23c8ceae993aea46eb64847072fd3d78ca60d3e4328383604051610396929190610eb1565b60405180910390a2505050565b60008054906101000a900473ffffffffffffffffffffffffffffffffffffffff1681565b60015481565b6002600087815260200190815260200160002060020160009054906101000a900460ff16610430576040517f08c379a000000000000000000000000000000000000000000000000000000000815260040161042790610f21565b60405180910390fd5b60008260006001811061044657610445610f41565b5b602002013590506001548114610491576040517f08c379a000000000000000000000000000000000000000000000000000000000815260040161048890610fbc565b60405180910390fd5b6003600083815260200190815260200160002060009054906101000a900460ff16156104f2576040517f08c379a00000000000000000000000000000000000000000000000000000000081526004016104e990611028565b60405180910390fd5b60008060009054906101000a900473ffffffffffffffffffffffffffffffffffffffff1673ffffffffffffffffffffffffffffffffffffffff166343753b4d888888886040518563ffffffff1660e01b81526004016105549493929190611130565b602060405180830381865afa158015610571573d6000803e3d6000fd5b505050506040513d601f19601f8201168201806040525081019061059591906111a3565b9050806105d7576040517f08c379a00000000000000000000000000000000000000000000000000000000081526004016105ce9061121c565b60405180910390fd5b60016003600085815260200190815260200160002060006101000a81548160ff0219169083151502179055506001600260008a8152602001908152602001600020600101600082825461062a919061126b565b92505081905550877fc31875ef3ed5138b71a0c1da7e494bc4d2ba4f567084ea481ec9c45f3a93948b8460405161066191906109da565b60405180910390a25050505050505050565b60036020528060005260406000206000915054906101000a900460ff1681565b60006002600083815260200190815260200160002060020160009054906101000a900460ff166106f8576040517f08c379a00000000000000000000000000000000000000000000000000000000081526004016106ef90610f21565b60405180910390fd5b60026000838152602001908152602001600020600101549050919050565b600080fd5b600080fd5b6000819050919050565b61073381610720565b811461073e57600080fd5b50565b6000813590506107508161072a565b92915050565b60006020828403121561076c5761076b610716565b5b600061077a84828501610741565b91505092915050565b600081519050919050565b600082825260208201905092915050565b60005b838110156107bd5780820151818401526020810190506107a2565b60008484015250505050565b6000601f19601f8301169050919050565b60006107e582610783565b6107ef818561078e565b93506107ff81856020860161079f565b610808816107c9565b840191505092915050565b61081c81610720565b82525050565b60008115159050919050565b61083781610822565b82525050565b6000606082019050818103600083015261085781866107da565b90506108666020830185610813565b610873604083018461082e565b949350505050565b600080fd5b600080fd5b600080fd5b60008083601f8401126108a05761089f61087b565b5b8235905067ffffffffffffffff8111156108bd576108bc610880565b5b6020830191508360018202830111156108d9576108d8610885565b5b9250929050565b6000806000604084860312156108f9576108f8610716565b5b600061090786828701610741565b935050602084013567ffffffffffffffff8111156109285761092761071b565b5b6109348682870161088a565b92509250509250925092565b600073ffffffffffffffffffffffffffffffffffffffff82169050919050565b6000819050919050565b600061098561098061097b84610940565b610960565b610940565b9050919050565b60006109978261096a565b9050919050565b60006109a98261098c565b9050919050565b6109b98161099e565b82525050565b60006020820190506109d460008301846109b0565b92915050565b60006020820190506109ef6000830184610813565b92915050565b600081905082602060020282011115610a1157610a10610885565b5b92915050565b600081905082604060020282011115610a3357610a32610885565b5b92915050565b600081905082602060010282011115610a5557610a54610885565b5b92915050565b6000806000806000806101608789031215610a7957610a78610716565b5b6000610a8789828a01610741565b9650506020610a9889828a016109f5565b9550506060610aa989828a01610a17565b94505060e0610aba89828a016109f5565b935050610120610acc89828a01610a39565b925050610140610ade89828a01610741565b9150509295509295509295565b6000602082019050610b00600083018461082e565b92915050565b7f4e487b7100000000000000000000000000000000000000000000000000000000600052602260045260246000fd5b60006002820490506001821680610b4d57607f821691505b602082108103610b6057610b5f610b06565b5b50919050565b7f50726f706f73616c20616c726561647920657869737473000000000000000000600082015250565b6000610b9c60178361078e565b9150610ba782610b66565b602082019050919050565b60006020820190508181036000830152610bcb81610b8f565b9050919050565b7f4e487b7100000000000000000000000000000000000000000000000000000000600052604160045260246000fd5b60008190508160005260206000209050919050565b60006020601f8301049050919050565b600082821b905092915050565b600060088302610c637fffffffffffffffffffffffffffffffffffffffffffffffffffffffffffffffff82610c26565b610c6d8683610c26565b95508019841693508086168417925050509392505050565b6000610ca0610c9b610c9684610720565b610960565b610720565b9050919050565b6000819050919050565b610cba83610c85565b610cce610cc682610ca7565b848454610c33565b825550505050565b600090565b610ce3610cd6565b610cee818484610cb1565b505050565b5b81811015610d1257610d07600082610cdb565b600181019050610cf4565b5050565b601f821115610d5757610d2881610c01565b610d3184610c16565b81016020851015610d40578190505b610d54610d4c85610c16565b830182610cf3565b50505b505050565b600082821c905092915050565b6000610d7a60001984600802610d5c565b1980831691505092915050565b6000610d938383610d69565b9150826002028217905092915050565b610dac82610783565b67ffffffffffffffff811115610dc557610dc4610bd2565b5b610dcf8254610b35565b610dda828285610d16565b600060209050601f831160018114610e0d5760008415610dfb578287015190505b610e058582610d87565b865550610e6d565b601f198416610e1b86610c01565b60005b82811015610e4357848901518255600182019150602085019450602081019050610e1e565b86831015610e605784890151610e5c601f891682610d69565b8355505b6001600288020188555050505b505050505050565b82818337600083830152505050565b6000610e90838561078e565b9350610e9d838584610e75565b610ea6836107c9565b840190509392505050565b60006020820190508181036000830152610ecc818486610e84565b90509392505050565b7f496e76616c69642070726f706f73616c00000000000000000000000000000000600082015250565b6000610f0b60108361078e565b9150610f1682610ed5565b602082019050919050565b60006020820190508181036000830152610f3a81610efe565b9050919050565b7f4e487b7100000000000000000000000000000000000000000000000000000000600052603260045260246000fd5b7f496e76616c6964204d65726b6c6520726f6f7400000000000000000000000000600082015250565b6000610fa660138361078e565b9150610fb182610f70565b602082019050919050565b60006020820190508181036000830152610fd581610f99565b9050919050565b7f566f746520616c72656164792063617374000000000000000000000000000000600082015250565b600061101260118361078e565b915061101d82610fdc565b602082019050919050565b6000602082019050818103600083015261104181611005565b9050919050565b82818337505050565b61105d60408383611048565b5050565b600060029050919050565b600081905092915050565b6000819050919050565b61108d60408383611048565b5050565b600061109d8383611081565b60408301905092915050565b600082905092915050565b6000604082019050919050565b6110ca81611061565b6110d4818461106c565b92506110df82611077565b8060005b83811015611118576110f582846110a9565b6110ff8782611091565b965061110a836110b4565b9250506001810190506110e3565b505050505050565b61112c60208383611048565b5050565b6000610120820190506111466000830187611051565b61115360408301866110c1565b61116060c0830185611051565b61116e610100830184611120565b95945050505050565b61118081610822565b811461118b57600080fd5b50565b60008151905061119d81611177565b92915050565b6000602082840312156111b9576111b8610716565b5b60006111c78482850161118e565b91505092915050565b7f496e76616c6964205a4b2070726f6f6600000000000000000000000000000000600082015250565b600061120660108361078e565b9150611211826111d0565b602082019050919050565b60006020820190508181036000830152611235816111f9565b9050919050565b7f4e487b7100000000000000000000000000000000000000000000000000000000600052601160045260246000fd5b600061127682610720565b915061128183610720565b92508282019050808211156112995761129861123c565b5b9291505056fea2646970667358221220a14bcfc288dda14595dbef90a32d388051bbf1c863e33e7725befd7ab88f2b5664736f6c63430008130033",
  "linkReferences": {},
  "deployedLinkReferences": {}
}