{
  "_format": "hh-sol-artifact-1",
  "contractName": "DAOVoting",
  "sourceName": "contracts/DAOVoting.sol",
  "abi": [
    {
      "inputs": [
        {
          "internalType": "address",
          "name": "_verifier",
          "type": "address"
        },
        {
          "internalType": "uint256",
          "name": "_merkleRoot",
          "type": "uint256"
        }
      ],
      "stateMutability": "nonpayable",
      "type": "constructor"
    },
    {
      "anonymous": false,
      "inputs": [
        {
          "indexed": false,
          "internalType": "uint256",
          "name": "proposalId",
          "type": "uint256"
        },
        {
          "indexed": false,
          "internalType": "string",
          "name": "title",
          "type": "string"
        }
      ],
      "name": "ProposalCreated",
      "type": "event"
    },
    {
      "anonymous": false,
      "inputs": [
        {
          "indexed": false,
          "internalType": "uint256",
          "name": "proposalId",
          "type": "uint256"
        },
        {
          "indexed": false,
          "internalType": "uint256",
          "name": "optionIndex",
          "type": "uint256"
        }
      ],
      "name": "VoteCasted",
      "type": "event"
    },
    {
      "inputs": [],
      "name": "admin",
      "outputs": [
        {
          "internalType": "address",
          "name": "",
          "type": "address"
        }
      ],
      "stateMutability": "view",
      "type": "function"
    },
    {
      "inputs": [
        {
          "internalType": "uint256",
          "name": "proposalId",
          "type": "uint256"
        },
        {
          "internalType": "string",
          "name": "_title",
          "type": "string"
        },
        {
          "internalType": "string",
          "name": "_description",
          "type": "string"
        },
        {
          "internalType": "uint256",
          "name": "_endTime",
          "type": "uint256"
        }
      ],
      "name": "createProposal",
      "outputs": [],
      "stateMutability": "nonpayable",
      "type": "function"
    },
    {
      "inputs": [
        {
          "internalType": "uint256",
          "name": "proposalId",
          "type": "uint256"
        },
        {
          "internalType": "uint256",
          "name": "optionIndex",
          "type": "uint256"
        }
      ],
      "name": "getOptionVotes",
      "outputs": [
        {
          "internalType": "uint256",
          "name": "",
          "type": "uint256"
        }
      ],
      "stateMutability": "view",
      "type": "function"
    },
    {
      "inputs": [],
      "name": "merkleRoot",
      "outputs": [
        {
          "internalType": "uint256",
          "name": "",
          "type": "uint256"
        }
      ],
      "stateMutability": "view",
      "type": "function"
    },
    {
      "inputs": [
        {
          "internalType": "uint256",
          "name": "",
          "type": "uint256"
        }
      ],
      "name": "nullifierUsed",
      "outputs": [
        {
          "internalType": "bool",
          "name": "",
          "type": "bool"
        }
      ],
      "stateMutability": "view",
      "type": "function"
    },
    {
      "inputs": [
        {
          "internalType": "uint256",
          "name": "",
          "type": "uint256"
        }
      ],
      "name": "proposals",
      "outputs": [
        {
          "internalType": "string",
          "name": "title",
          "type": "string"
        },
        {
          "internalType": "string",
          "name": "description",
          "type": "string"
        },
        {
          "internalType": "uint256",
          "name": "endTime",
          "type": "uint256"
        },
        {
          "internalType": "bool",
          "name": "exists",
          "type": "bool"
        },
        {
          "internalType": "uint256",
          "name": "totalVotes",
          "type": "uint256"
        }
      ],
      "stateMutability": "view",
      "type": "function"
    },
    {
      "inputs": [],
      "name": "verifier",
      "outputs": [
        {
          "internalType": "contract Groth16Verifier",
          "name": "",
          "type": "address"
        }
      ],
      "stateMutability": "view",
      "type": "function"
    },
    {
      "inputs": [
        {
          "internalType": "uint256",
          "name": "proposalId",
          "type": "uint256"
        },
        {
          "internalType": "uint256",
          "name": "_optionIndex",
          "type": "uint256"
        },
        {
          "internalType": "uint256[2]",
          "name": "a",
          "type": "uint256[2]"
        },
        {
          "internalType": "uint256[2][2]",
          "name": "b",
          "type": "uint256[2][2]"
        },
        {
          "internalType": "uint256[2]",
          "name": "c",
          "type": "uint256[2]"
        },
        {
          "internalType": "uint256[1]",
          "name": "publicSignals",
          "type": "uint256[1]"
        },
        {
          "internalType": "uint256",
          "name": "nullifierHash",
          "type": "uint256"
        }
      ],
      "name": "vote",
      "outputs": [],
      "stateMutability": "nonpayable",
      "type": "function"
    }
  ],
  "bytecode": "0x60806040523480156200001157600080fd5b50604051620016463803806200164683398181016040528101906200003791906200016c565b816000806101000a81548173ffffffffffffffffffffffffffffffffffffffff021916908373ffffffffffffffffffffffffffffffffffffffff1602179055508060018190555033600260006101000a81548173ffffffffffffffffffffffffffffffffffffffff021916908373ffffffffffffffffffffffffffffffffffffffff1602179055505050620001b3565b600080fd5b600073ffffffffffffffffffffffffffffffffffffffff82169050919050565b6000620000f982620000cc565b9050919050565b6200010b81620000ec565b81146200011757600080fd5b50565b6000815190506200012b8162000100565b92915050565b6000819050919050565b620001468162000131565b81146200015257600080fd5b50565b60008151905062000166816200013b565b92915050565b60008060408385031215620001865762000185620000c7565b5b600062000196858286016200011a565b9250506020620001a98582860162000155565b9150509250929050565b61148380620001c36000396000f3fe608060405234801561001057600080fd5b50600436106100885760003560e01c806379f95ee91161005b57806379f95ee914610119578063d509bca714610149578063e7ea088f14610165578063f851a4401461019557610088565b8063013cf08b1461008d5780632b7ac3f3146100c15780632eb4a7ab146100df5780635ada0a41146100fd575b600080fd5b6100a760048036038101906100a291906107f7565b6101b3565b6040516100b89594939291906108de565b60405180910390f35b6100c9610306565b6040516100d691906109be565b60405180910390f35b6100e761032a565b6040516100f491906109d9565b60405180910390f35b61011760048036038101906101129190610a59565b610330565b005b610133600480360381019061012e91906107f7565b610469565b6040516101409190610b00565b60405180910390f35b610163600480360381019061015e9190610b81565b610489565b005b61017f600480360381019061017a9190610c27565b61075f565b60405161018c91906109d9565b60405180910390f35b61019d610791565b6040516101aa9190610c88565b60405180910390f35b60036020528060005260406000206000915090508060000180546101d690610cd2565b80601f016020809104026020016040519081016040528092919081815260200182805461020290610cd2565b801561024f5780601f106102245761010080835404028352916020019161024f565b820191906000526020600020905b81548152906001019060200180831161023257829003601f168201915b50505050509080600101805461026490610cd2565b80601f016020809104026020016040519081016040528092919081815260200182805461029090610cd2565b80156102dd5780601f106102b2576101008083540402835291602001916102dd565b820191906000526020600020905b8154815290600101906020018083116102c057829003601f168201915b5050505050908060020154908060030160009054906101000a900460ff16908060050154905085565b60008054906101000a900473ffffffffffffffffffffffffffffffffffffffff1681565b60015481565b600260009054906101000a900473ffffffffffffffffffffffffffffffffffffffff1673ffffffffffffffffffffffffffffffffffffffff163373ffffffffffffffffffffffffffffffffffffffff16146103c0576040517f08c379a00000000000000000000000000000000000000000000000000000000081526004016103b790610d4f565b60405180910390fd5b600060036000888152602001908152602001600020905085858260000191826103ea929190610f4b565b5083838260010191826103fe929190610f4b565b5081816002018190555060018160030160006101000a81548160ff0219169083151502179055507f9c770c289ab5bf7e57cb1d23c8ceae993aea46eb64847072fd3d78ca60d3e43287878760405161045893929190611057565b60405180910390a150505050505050565b60046020528060005260406000206000915054906101000a900460ff1681565b6003600088815260200190815260200160002060030160009054906101000a900460ff166104ec576040517f08c379a00000000000000000000000000000000000000000000000000000000081526004016104e3906110d5565b60405180910390fd5b60036000888152602001908152602001600020600201544210610544576040517f08c379a000000000000000000000000000000000000000000000000000000000815260040161053b90611141565b60405180910390fd5b6004600082815260200190815260200160002060009054906101000a900460ff16156105a5576040517f08c379a000000000000000000000000000000000000000000000000000000000815260040161059c906111ad565b60405180910390fd5b60008054906101000a900473ffffffffffffffffffffffffffffffffffffffff1673ffffffffffffffffffffffffffffffffffffffff166343753b4d868686866040518563ffffffff1660e01b815260040161060494939291906112b5565b602060405180830381865afa158015610621573d6000803e3d6000fd5b505050506040513d601f19601f820116820180604052508101906106459190611328565b610684576040517f08c379a000000000000000000000000000000000000000000000000000000000815260040161067b906113a1565b60405180910390fd5b60016004600083815260200190815260200160002060006101000a81548160ff021916908315150217905550600160036000898152602001908152602001600020600401600088815260200190815260200160002060008282546106e891906113f0565b92505081905550600160036000898152602001908152602001600020600501600082825461071691906113f0565b925050819055507f5d4760119c8e8650149aac097d38c70515dfce015031561ad115606533e479be878760405161074e929190611424565b60405180910390a150505050505050565b600060036000848152602001908152602001600020600401600083815260200190815260200160002054905092915050565b600260009054906101000a900473ffffffffffffffffffffffffffffffffffffffff1681565b600080fd5b600080fd5b6000819050919050565b6107d4816107c1565b81146107df57600080fd5b50565b6000813590506107f1816107cb565b92915050565b60006020828403121561080d5761080c6107b7565b5b600061081b848285016107e2565b91505092915050565b600081519050919050565b600082825260208201905092915050565b60005b8381101561085e578082015181840152602081019050610843565b60008484015250505050565b6000601f19601f8301169050919050565b600061088682610824565b610890818561082f565b93506108a0818560208601610840565b6108a98161086a565b840191505092915050565b6108bd816107c1565b82525050565b60008115159050919050565b6108d8816108c3565b82525050565b600060a08201905081810360008301526108f8818861087b565b9050818103602083015261090c818761087b565b905061091b60408301866108b4565b61092860608301856108cf565b61093560808301846108b4565b9695505050505050565b600073ffffffffffffffffffffffffffffffffffffffff82169050919050565b6000819050919050565b600061098461097f61097a8461093f565b61095f565b61093f565b9050919050565b600061099682610969565b9050919050565b60006109a88261098b565b9050919050565b6109b88161099d565b82525050565b60006020820190506109d360008301846109af565b92915050565b60006020820190506109ee60008301846108b4565b92915050565b600080fd5b600080fd5b600080fd5b60008083601f840112610a1957610a186109f4565b5b8235905067ffffffffffffffff811115610a3657610a356109f9565b5b602083019150836001820283011115610a5257610a516109fe565b5b9250929050565b60008060008060008060808789031215610a7657610a756107b7565b5b6000610a8489828a016107e2565b965050602087013567ffffffffffffffff811115610aa557610aa46107bc565b5b610ab189828a01610a03565b9550955050604087013567ffffffffffffffff811115610ad457610ad36107bc565b5b610ae089828a01610a03565b93509350506060610af389828a016107e2565b9150509295509295509295565b6000602082019050610b1560008301846108cf565b92915050565b600081905082602060020282011115610b3757610b366109fe565b5b92915050565b600081905082604060020282011115610b5957610b586109fe565b5b92915050565b600081905082602060010282011115610b7b57610b7a6109fe565b5b92915050565b6000806000806000806000610180888a031215610ba157610ba06107b7565b5b6000610baf8a828b016107e2565b9750506020610bc08a828b016107e2565b9650506040610bd18a828b01610b1b565b9550506080610be28a828b01610b3d565b945050610100610bf48a828b01610b1b565b935050610140610c068a828b01610b5f565b925050610160610c188a828b016107e2565b91505092959891949750929550565b60008060408385031215610c3e57610c3d6107b7565b5b6000610c4c858286016107e2565b9250506020610c5d858286016107e2565b9150509250929050565b6000610c728261093f565b9050919050565b610c8281610c67565b82525050565b6000602082019050610c9d6000830184610c79565b92915050565b7f4e487b7100000000000000000000000000000000000000000000000000000000600052602260045260246000fd5b60006002820490506001821680610cea57607f821691505b602082108103610cfd57610cfc610ca3565b5b50919050565b7f556e617574686f72697a65640000000000000000000000000000000000000000600082015250565b6000610d39600c8361082f565b9150610d4482610d03565b602082019050919050565b60006020820190508181036000830152610d6881610d2c565b9050919050565b600082905092915050565b7f4e487b7100000000000000000000000000000000000000000000000000000000600052604160045260246000fd5b60008190508160005260206000209050919050565b60006020601f8301049050919050565b600082821b905092915050565b600060088302610e0b7fffffffffffffffffffffffffffffffffffffffffffffffffffffffffffffffff82610dce565b610e158683610dce565b95508019841693508086168417925050509392505050565b6000610e48610e43610e3e846107c1565b61095f565b6107c1565b9050919050565b6000819050919050565b610e6283610e2d565b610e76610e6e82610e4f565b848454610ddb565b825550505050565b600090565b610e8b610e7e565b610e96818484610e59565b505050565b5b81811015610eba57610eaf600082610e83565b600181019050610e9c565b5050565b601f821115610eff57610ed081610da9565b610ed984610dbe565b81016020851015610ee8578190505b610efc610ef485610dbe565b830182610e9b565b50505b505050565b600082821c905092915050565b6000610f2260001984600802610f04565b1980831691505092915050565b6000610f3b8383610f11565b9150826002028217905092915050565b610f558383610d6f565b67ffffffffffffffff811115610f6e57610f6d610d7a565b5b610f788254610cd2565b610f83828285610ebe565b6000601f831160018114610fb25760008415610fa0578287013590505b610faa8582610f2f565b865550611012565b601f198416610fc086610da9565b60005b82811015610fe857848901358255600182019150602085019450602081019050610fc3565b868310156110055784890135611001601f891682610f11565b8355505b6001600288020188555050505b50505050505050565b82818337600083830152505050565b6000611036838561082f565b935061104383858461101b565b61104c8361086a565b840190509392505050565b600060408201905061106c60008301866108b4565b818103602083015261107f81848661102a565b9050949350505050565b7f496e76616c69642070726f706f73616c00000000000000000000000000000000600082015250565b60006110bf60108361082f565b91506110ca82611089565b602082019050919050565b600060208201905081810360008301526110ee816110b2565b9050919050565b7f436c6f7365640000000000000000000000000000000000000000000000000000600082015250565b600061112b60068361082f565b9150611136826110f5565b602082019050919050565b6000602082019050818103600083015261115a8161111e565b9050919050565b7f416c726561647920766f74656400000000000000000000000000000000000000600082015250565b6000611197600d8361082f565b91506111a282611161565b602082019050919050565b600060208201905081810360008301526111c68161118a565b9050919050565b82818337505050565b6111e2604083836111cd565b5050565b600060029050919050565b600081905092915050565b6000819050919050565b611212604083836111cd565b5050565b60006112228383611206565b60408301905092915050565b600082905092915050565b6000604082019050919050565b61124f816111e6565b61125981846111f1565b9250611264826111fc565b8060005b8381101561129d5761127a828461122e565b6112848782611216565b965061128f83611239565b925050600181019050611268565b505050505050565b6112b1602083836111cd565b5050565b6000610120820190506112cb60008301876111d6565b6112d86040830186611246565b6112e560c08301856111d6565b6112f36101008301846112a5565b95945050505050565b611305816108c3565b811461131057600080fd5b50565b600081519050611322816112fc565b92915050565b60006020828403121561133e5761133d6107b7565b5b600061134c84828501611313565b91505092915050565b7f496e76616c69642070726f6f6600000000000000000000000000000000000000600082015250565b600061138b600d8361082f565b915061139682611355565b602082019050919050565b600060208201905081810360008301526113ba8161137e565b9050919050565b7f4e487b7100000000000000000000000000000000000000000000000000000000600052601160045260246000fd5b60006113fb826107c1565b9150611406836107c1565b925082820190508082111561141e5761141d6113c1565b5b92915050565b600060408201905061143960008301856108b4565b61144660208301846108b4565b939250505056fea2646970667358221220efddb69981c4fb1128ce75397b3692ee46550a5ca8631fb68844a8623d02f81864736f6c63430008130033",
  "linkReferences": {},
  "deployedLinkReferences": {}
}